{
  "_format": "hh-sol-artifact-1",
  "contractName": "Freelancing",
  "sourceName": "contracts/Freelancing.sol",
  "abi": [
    {
      "inputs": [
        {
          "internalType": "uint256",
          "name": "_id",
          "type": "uint256"
        },
        {
          "internalType": "string",
          "name": "_bidder",
          "type": "string"
        },
        {
          "internalType": "uint256",
          "name": "_cost",
          "type": "uint256"
        },
        {
          "internalType": "uint256",
          "name": "_time",
          "type": "uint256"
        },
        {
          "internalType": "uint256",
          "name": "_rating",
          "type": "uint256"
        },
        {
          "internalType": "uint256",
          "name": "_pId",
          "type": "uint256"
        },
        {
          "internalType": "string",
          "name": "_desc",
          "type": "string"
        },
        {
          "internalType": "string",
          "name": "_image",
          "type": "string"
        }
      ],
      "name": "addBid",
      "outputs": [],
      "stateMutability": "payable",
      "type": "function"
    },
    {
      "inputs": [
        {
          "internalType": "uint256",
          "name": "",
          "type": "uint256"
        }
      ],
      "name": "bids",
      "outputs": [
        {
          "internalType": "string",
          "name": "desc",
          "type": "string"
        },
        {
          "internalType": "string",
          "name": "image",
          "type": "string"
        },
        {
          "internalType": "string",
          "name": "bidder",
          "type": "string"
        }
      ],
      "stateMutability": "view",
      "type": "function"
    },
    {
      "inputs": [
        {
          "internalType": "string[12]",
          "name": "strArr",
          "type": "string[12]"
        },
        {
          "internalType": "uint256[3]",
          "name": "intArr",
          "type": "uint256[3]"
        },
        {
          "internalType": "address",
          "name": "_owner",
          "type": "address"
        },
        {
          "internalType": "string[]",
          "name": "skills",
          "type": "string[]"
        },
        {
          "internalType": "string",
          "name": "_category",
          "type": "string"
        }
      ],
      "name": "createJob",
      "outputs": [
        {
          "internalType": "uint256",
          "name": "",
          "type": "uint256"
        }
      ],
      "stateMutability": "payable",
      "type": "function"
    },
    {
      "inputs": [
        {
          "internalType": "string[10]",
          "name": "strArr",
          "type": "string[10]"
        },
        {
          "internalType": "address",
          "name": "_developer",
          "type": "address"
        },
        {
          "internalType": "string[]",
          "name": "_skills",
          "type": "string[]"
        },
        {
          "internalType": "string[]",
          "name": "_exp_title",
          "type": "string[]"
        },
        {
          "internalType": "string[]",
          "name": "_exp_desc",
          "type": "string[]"
        },
        {
          "internalType": "uint256[]",
          "name": "_exp_duration",
          "type": "uint256[]"
        },
        {
          "internalType": "string[]",
          "name": "_pro_title",
          "type": "string[]"
        },
        {
          "internalType": "string[]",
          "name": "_pro_desc",
          "type": "string[]"
        },
        {
          "internalType": "string[]",
          "name": "_pro_platform",
          "type": "string[]"
        }
      ],
      "name": "createProfile",
      "outputs": [
        {
          "internalType": "uint256",
          "name": "",
          "type": "uint256"
        }
      ],
      "stateMutability": "payable",
      "type": "function"
    },
    {
      "inputs": [
        {
          "internalType": "uint256",
          "name": "",
          "type": "uint256"
        }
      ],
      "name": "experiences",
      "outputs": [
        {
          "internalType": "uint256",
          "name": "duration",
          "type": "uint256"
        }
      ],
      "stateMutability": "view",
      "type": "function"
    },
    {
      "inputs": [
        {
          "internalType": "uint256",
          "name": "_id",
          "type": "uint256"
        },
        {
          "internalType": "uint256",
          "name": "id",
          "type": "uint256"
        },
        {
          "internalType": "uint256",
          "name": "_amt",
          "type": "uint256"
        }
      ],
      "name": "final_select",
      "outputs": [
        {
          "internalType": "uint256",
          "name": "",
          "type": "uint256"
        }
      ],
      "stateMutability": "payable",
      "type": "function"
    },
    {
      "inputs": [
        {
          "internalType": "uint256",
          "name": "_id",
          "type": "uint256"
        }
      ],
      "name": "getAJob",
      "outputs": [
        {
          "components": [
            {
              "internalType": "string[12]",
              "name": "stringArray",
              "type": "string[12]"
            },
            {
              "internalType": "uint256[3]",
              "name": "intArray",
              "type": "uint256[3]"
            },
            {
              "internalType": "address",
              "name": "owner",
              "type": "address"
            },
            {
              "internalType": "string",
              "name": "category",
              "type": "string"
            },
            {
              "internalType": "string[]",
              "name": "req_skills",
              "type": "string[]"
            },
            {
              "components": [
                {
                  "internalType": "uint256[4]",
                  "name": "bidArray",
                  "type": "uint256[4]"
                },
                {
                  "internalType": "string",
                  "name": "desc",
                  "type": "string"
                },
                {
                  "internalType": "string",
                  "name": "image",
                  "type": "string"
                },
                {
                  "internalType": "string",
                  "name": "bidder",
                  "type": "string"
                }
              ],
              "internalType": "struct Freelancing.Bidder[]",
              "name": "bidders",
              "type": "tuple[]"
            },
            {
              "internalType": "uint256",
              "name": "final_selection",
              "type": "uint256"
            },
            {
              "internalType": "uint256",
              "name": "final_amount",
              "type": "uint256"
            },
            {
              "internalType": "uint256",
              "name": "pId",
              "type": "uint256"
            },
            {
              "internalType": "uint256",
              "name": "visible",
              "type": "uint256"
            },
            {
              "internalType": "uint256[]",
              "name": "resp",
              "type": "uint256[]"
            },
            {
              "internalType": "string[]",
              "name": "ask",
              "type": "string[]"
            },
            {
              "internalType": "uint256",
              "name": "totalAsks",
              "type": "uint256"
            },
            {
              "internalType": "uint256",
              "name": "finished",
              "type": "uint256"
            }
          ],
          "internalType": "struct Freelancing.Job",
          "name": "",
          "type": "tuple"
        }
      ],
      "stateMutability": "view",
      "type": "function"
    },
    {
      "inputs": [],
      "name": "getAllProfiles",
      "outputs": [
        {
          "components": [
            {
              "internalType": "string[10]",
              "name": "stringArray",
              "type": "string[10]"
            },
            {
              "internalType": "uint256",
              "name": "rating",
              "type": "uint256"
            },
            {
              "internalType": "uint256",
              "name": "pId",
              "type": "uint256"
            },
            {
              "internalType": "address",
              "name": "developer",
              "type": "address"
            },
            {
              "internalType": "string[]",
              "name": "skills",
              "type": "string[]"
            },
            {
              "internalType": "string[]",
              "name": "exp_title",
              "type": "string[]"
            },
            {
              "internalType": "string[]",
              "name": "exp_desc",
              "type": "string[]"
            },
            {
              "internalType": "uint256[]",
              "name": "exp_duration",
              "type": "uint256[]"
            },
            {
              "internalType": "string[]",
              "name": "pro_title",
              "type": "string[]"
            },
            {
              "internalType": "string[]",
              "name": "pro_desc",
              "type": "string[]"
            },
            {
              "internalType": "string[]",
              "name": "pro_platform",
              "type": "string[]"
            },
            {
              "internalType": "uint256",
              "name": "engaged",
              "type": "uint256"
            }
          ],
          "internalType": "struct Freelancing.Profile[]",
          "name": "",
          "type": "tuple[]"
        }
      ],
      "stateMutability": "view",
      "type": "function"
    },
    {
      "inputs": [],
      "name": "getBalance",
      "outputs": [
        {
          "internalType": "uint256",
          "name": "",
          "type": "uint256"
        }
      ],
      "stateMutability": "view",
      "type": "function"
    },
    {
      "inputs": [],
      "name": "getJobs",
      "outputs": [
        {
          "components": [
            {
              "internalType": "string[12]",
              "name": "stringArray",
              "type": "string[12]"
            },
            {
              "internalType": "uint256[3]",
              "name": "intArray",
              "type": "uint256[3]"
            },
            {
              "internalType": "address",
              "name": "owner",
              "type": "address"
            },
            {
              "internalType": "string",
              "name": "category",
              "type": "string"
            },
            {
              "internalType": "string[]",
              "name": "req_skills",
              "type": "string[]"
            },
            {
              "components": [
                {
                  "internalType": "uint256[4]",
                  "name": "bidArray",
                  "type": "uint256[4]"
                },
                {
                  "internalType": "string",
                  "name": "desc",
                  "type": "string"
                },
                {
                  "internalType": "string",
                  "name": "image",
                  "type": "string"
                },
                {
                  "internalType": "string",
                  "name": "bidder",
                  "type": "string"
                }
              ],
              "internalType": "struct Freelancing.Bidder[]",
              "name": "bidders",
              "type": "tuple[]"
            },
            {
              "internalType": "uint256",
              "name": "final_selection",
              "type": "uint256"
            },
            {
              "internalType": "uint256",
              "name": "final_amount",
              "type": "uint256"
            },
            {
              "internalType": "uint256",
              "name": "pId",
              "type": "uint256"
            },
            {
              "internalType": "uint256",
              "name": "visible",
              "type": "uint256"
            },
            {
              "internalType": "uint256[]",
              "name": "resp",
              "type": "uint256[]"
            },
            {
              "internalType": "string[]",
              "name": "ask",
              "type": "string[]"
            },
            {
              "internalType": "uint256",
              "name": "totalAsks",
              "type": "uint256"
            },
            {
              "internalType": "uint256",
              "name": "finished",
              "type": "uint256"
            }
          ],
          "internalType": "struct Freelancing.Job[]",
          "name": "",
          "type": "tuple[]"
        }
      ],
      "stateMutability": "view",
      "type": "function"
    },
    {
      "inputs": [
        {
          "internalType": "uint256",
          "name": "_id",
          "type": "uint256"
        }
      ],
      "name": "getProfile",
      "outputs": [
        {
          "components": [
            {
              "internalType": "string[10]",
              "name": "stringArray",
              "type": "string[10]"
            },
            {
              "internalType": "uint256",
              "name": "rating",
              "type": "uint256"
            },
            {
              "internalType": "uint256",
              "name": "pId",
              "type": "uint256"
            },
            {
              "internalType": "address",
              "name": "developer",
              "type": "address"
            },
            {
              "internalType": "string[]",
              "name": "skills",
              "type": "string[]"
            },
            {
              "internalType": "string[]",
              "name": "exp_title",
              "type": "string[]"
            },
            {
              "internalType": "string[]",
              "name": "exp_desc",
              "type": "string[]"
            },
            {
              "internalType": "uint256[]",
              "name": "exp_duration",
              "type": "uint256[]"
            },
            {
              "internalType": "string[]",
              "name": "pro_title",
              "type": "string[]"
            },
            {
              "internalType": "string[]",
              "name": "pro_desc",
              "type": "string[]"
            },
            {
              "internalType": "string[]",
              "name": "pro_platform",
              "type": "string[]"
            },
            {
              "internalType": "uint256",
              "name": "engaged",
              "type": "uint256"
            }
          ],
          "internalType": "struct Freelancing.Profile",
          "name": "",
          "type": "tuple"
        }
      ],
      "stateMutability": "view",
      "type": "function"
    },
    {
      "inputs": [
        {
          "internalType": "uint256",
          "name": "",
          "type": "uint256"
        }
      ],
      "name": "jobs",
      "outputs": [
        {
          "internalType": "address",
          "name": "owner",
          "type": "address"
        },
        {
          "internalType": "string",
          "name": "category",
          "type": "string"
        },
        {
          "internalType": "uint256",
          "name": "final_selection",
          "type": "uint256"
        },
        {
          "internalType": "uint256",
          "name": "final_amount",
          "type": "uint256"
        },
        {
          "internalType": "uint256",
          "name": "pId",
          "type": "uint256"
        },
        {
          "internalType": "uint256",
          "name": "visible",
          "type": "uint256"
        },
        {
          "internalType": "uint256",
          "name": "totalAsks",
          "type": "uint256"
        },
        {
          "internalType": "uint256",
          "name": "finished",
          "type": "uint256"
        }
      ],
      "stateMutability": "view",
      "type": "function"
    },
    {
      "inputs": [
        {
          "internalType": "uint256",
          "name": "_id",
          "type": "uint256"
        },
        {
          "internalType": "string",
          "name": "_ask",
          "type": "string"
        }
      ],
      "name": "makeAsk",
      "outputs": [],
      "stateMutability": "nonpayable",
      "type": "function"
    },
    {
      "inputs": [
        {
          "internalType": "uint256",
          "name": "_id",
          "type": "uint256"
        },
        {
          "internalType": "uint256",
          "name": "_resp",
          "type": "uint256"
        },
        {
          "internalType": "address",
          "name": "_add",
          "type": "address"
        },
        {
          "internalType": "uint256",
          "name": "_amt",
          "type": "uint256"
        }
      ],
      "name": "makeResponse",
      "outputs": [],
      "stateMutability": "nonpayable",
      "type": "function"
    },
    {
      "inputs": [],
      "name": "numberOfBids",
      "outputs": [
        {
          "internalType": "uint256",
          "name": "",
          "type": "uint256"
        }
      ],
      "stateMutability": "view",
      "type": "function"
    },
    {
      "inputs": [],
      "name": "numberOfExperiences",
      "outputs": [
        {
          "internalType": "uint256",
          "name": "",
          "type": "uint256"
        }
      ],
      "stateMutability": "view",
      "type": "function"
    },
    {
      "inputs": [],
      "name": "numberOfJobs",
      "outputs": [
        {
          "internalType": "uint256",
          "name": "",
          "type": "uint256"
        }
      ],
      "stateMutability": "view",
      "type": "function"
    },
    {
      "inputs": [],
      "name": "numberOfProfiles",
      "outputs": [
        {
          "internalType": "uint256",
          "name": "",
          "type": "uint256"
        }
      ],
      "stateMutability": "view",
      "type": "function"
    },
    {
      "inputs": [],
      "name": "numberOfProjects",
      "outputs": [
        {
          "internalType": "uint256",
          "name": "",
          "type": "uint256"
        }
      ],
      "stateMutability": "view",
      "type": "function"
    },
    {
      "inputs": [
        {
          "internalType": "uint256",
          "name": "",
          "type": "uint256"
        }
      ],
      "name": "profiles",
      "outputs": [
        {
          "internalType": "uint256",
          "name": "rating",
          "type": "uint256"
        },
        {
          "internalType": "uint256",
          "name": "pId",
          "type": "uint256"
        },
        {
          "internalType": "address",
          "name": "developer",
          "type": "address"
        },
        {
          "internalType": "uint256",
          "name": "engaged",
          "type": "uint256"
        }
      ],
      "stateMutability": "view",
      "type": "function"
    },
    {
      "inputs": [
        {
          "internalType": "uint256",
          "name": "",
          "type": "uint256"
        }
      ],
      "name": "projects",
      "outputs": [
        {
          "internalType": "string",
          "name": "platform",
          "type": "string"
        }
      ],
      "stateMutability": "view",
      "type": "function"
    },
    {
      "inputs": [
        {
          "internalType": "uint256",
          "name": "_id",
          "type": "uint256"
        },
        {
          "internalType": "uint256",
          "name": "_rating",
          "type": "uint256"
        }
      ],
      "name": "rate",
      "outputs": [],
      "stateMutability": "payable",
      "type": "function"
    },
    {
      "inputs": [
        {
          "internalType": "uint256",
          "name": "_id",
          "type": "uint256"
        },
        {
          "internalType": "string[10]",
          "name": "strArr",
          "type": "string[10]"
        },
        {
          "internalType": "address",
          "name": "_developer",
          "type": "address"
        },
        {
          "internalType": "string[]",
          "name": "_skills",
          "type": "string[]"
        },
        {
          "internalType": "string[]",
          "name": "_exp_title",
          "type": "string[]"
        },
        {
          "internalType": "string[]",
          "name": "_exp_desc",
          "type": "string[]"
        },
        {
          "internalType": "uint256[]",
          "name": "_exp_duration",
          "type": "uint256[]"
        },
        {
          "internalType": "string[]",
          "name": "_pro_title",
          "type": "string[]"
        },
        {
          "internalType": "string[]",
          "name": "_pro_desc",
          "type": "string[]"
        },
        {
          "internalType": "string[]",
          "name": "_pro_platform",
          "type": "string[]"
        }
      ],
      "name": "updateProfile",
      "outputs": [
        {
          "internalType": "uint256",
          "name": "",
          "type": "uint256"
        }
      ],
      "stateMutability": "payable",
      "type": "function"
    }
  ],
  "bytecode": "0x60806040526000600155600060035560006005556000600755600060095534801561002957600080fd5b50615b79806200003a6000396000f3fe6080604052600436106101405760003560e01c80639764713b116100b6578063db5e4c7f1161006f578063db5e4c7f14610484578063db65657c146104af578063ddfb31c7146104d8578063e3e8224214610501578063edd25ab414610531578063f08f4f641461056157610140565b80639764713b14610365578063c36fe3d614610381578063ce87ce1f146103c1578063cf3e7c7c146103ec578063d36ec81614610429578063da35b8601461045957610140565b80631b5553b7116101085780631b5553b714610247578063303271701461028457806330607a94146102b457806343bebfbf146102df5780634423c5f1146102fb57806368581ebd1461033a57610140565b80630b1fe78414610145578063107046bd1461017057806312065fe0146101ad57806317d531fc146101d8578063180aedf314610203575b600080fd5b34801561015157600080fd5b5061015a61059e565b6040516101679190614304565b60405180910390f35b34801561017c57600080fd5b5061019760048036038101906101929190614366565b610d0e565b6040516101a491906143dd565b60405180910390f35b3480156101b957600080fd5b506101c2610db4565b6040516101cf919061440e565b60405180910390f35b3480156101e457600080fd5b506101ed610dbc565b6040516101fa919061440e565b60405180910390f35b34801561020f57600080fd5b5061022a60048036038101906102259190614366565b610dc2565b60405161023e989796959493929190614438565b60405180910390f35b34801561025357600080fd5b5061026e60048036038101906102699190614366565b610eb2565b60405161027b91906148ed565b60405180910390f35b61029e60048036038101906102999190614ce8565b611574565b6040516102ab919061440e565b60405180910390f35b3480156102c057600080fd5b506102c9611b86565b6040516102d6919061440e565b60405180910390f35b6102f960048036038101906102f49190614e92565b611b8c565b005b34801561030757600080fd5b50610322600480360381019061031d9190614366565b611bb1565b60405161033193929190614ed2565b60405180910390f35b34801561034657600080fd5b5061034f611d73565b60405161035c9190615133565b60405180910390f35b61037f600480360381019061037a9190615155565b6124ce565b005b34801561038d57600080fd5b506103a860048036038101906103a39190614366565b612687565b6040516103b8949392919061525f565b60405180910390f35b3480156103cd57600080fd5b506103d66126d7565b6040516103e3919061440e565b60405180910390f35b3480156103f857600080fd5b50610413600480360381019061040e9190614366565b6126dd565b604051610420919061440e565b60405180910390f35b610443600480360381019061043e91906152a4565b6126fb565b604051610450919061440e565b60405180910390f35b34801561046557600080fd5b5061046e61275c565b60405161047b919061440e565b60405180910390f35b34801561049057600080fd5b50610499612762565b6040516104a6919061440e565b60405180910390f35b3480156104bb57600080fd5b506104d660048036038101906104d191906152f7565b612768565b005b3480156104e457600080fd5b506104ff60048036038101906104fa9190615353565b6127c2565b005b61051b6004803603810190610516919061553a565b6128cc565b604051610528919061440e565b60405180910390f35b61054b60048036038101906105469190615609565b612e5f565b604051610558919061440e565b60405180910390f35b34801561056d57600080fd5b5061058860048036038101906105839190614366565b613443565b60405161059591906158fd565b60405180910390f35b6060600060095467ffffffffffffffff8111156105be576105bd614914565b5b6040519080825280602002602001820160405280156105f757816020015b6105e4613b1a565b8152602001906001900390816105dc5790505b50905060005b600954811015610d06576000600860008381526020019081526020016000209050806040518061018001604052908160008201600a80602002604051908101604052809291906000905b828210156106ea57838201805461065d9061594e565b80601f01602080910402602001604051908101604052809291908181526020018280546106899061594e565b80156106d65780601f106106ab576101008083540402835291602001916106d6565b820191906000526020600020905b8154815290600101906020018083116106b957829003601f168201915b505050505081526020019060010190610647565b505050508152602001600a8201548152602001600b8201548152602001600c820160009054906101000a900473ffffffffffffffffffffffffffffffffffffffff1673ffffffffffffffffffffffffffffffffffffffff1673ffffffffffffffffffffffffffffffffffffffff168152602001600d8201805480602002602001604051908101604052809291908181526020016000905b8282101561082d5783829060005260206000200180546107a09061594e565b80601f01602080910402602001604051908101604052809291908181526020018280546107cc9061594e565b80156108195780601f106107ee57610100808354040283529160200191610819565b820191906000526020600020905b8154815290600101906020018083116107fc57829003601f168201915b505050505081526020019060010190610781565b505050508152602001600e8201805480602002602001604051908101604052809291908181526020016000905b828210156109065783829060005260206000200180546108799061594e565b80601f01602080910402602001604051908101604052809291908181526020018280546108a59061594e565b80156108f25780601f106108c7576101008083540402835291602001916108f2565b820191906000526020600020905b8154815290600101906020018083116108d557829003601f168201915b50505050508152602001906001019061085a565b505050508152602001600f8201805480602002602001604051908101604052809291908181526020016000905b828210156109df5783829060005260206000200180546109529061594e565b80601f016020809104026020016040519081016040528092919081815260200182805461097e9061594e565b80156109cb5780601f106109a0576101008083540402835291602001916109cb565b820191906000526020600020905b8154815290600101906020018083116109ae57829003601f168201915b505050505081526020019060010190610933565b50505050815260200160108201805480602002602001604051908101604052809291908181526020018280548015610a3657602002820191906000526020600020905b815481526020019060010190808311610a22575b5050505050815260200160118201805480602002602001604051908101604052809291908181526020016000905b82821015610b10578382906000526020600020018054610a839061594e565b80601f0160208091040260200160405190810160405280929190818152602001828054610aaf9061594e565b8015610afc5780601f10610ad157610100808354040283529160200191610afc565b820191906000526020600020905b815481529060010190602001808311610adf57829003601f168201915b505050505081526020019060010190610a64565b50505050815260200160128201805480602002602001604051908101604052809291908181526020016000905b82821015610be9578382906000526020600020018054610b5c9061594e565b80601f0160208091040260200160405190810160405280929190818152602001828054610b889061594e565b8015610bd55780601f10610baa57610100808354040283529160200191610bd5565b820191906000526020600020905b815481529060010190602001808311610bb857829003601f168201915b505050505081526020019060010190610b3d565b50505050815260200160138201805480602002602001604051908101604052809291908181526020016000905b82821015610cc2578382906000526020600020018054610c359061594e565b80601f0160208091040260200160405190810160405280929190818152602001828054610c619061594e565b8015610cae5780601f10610c8357610100808354040283529160200191610cae565b820191906000526020600020905b815481529060010190602001808311610c9157829003601f168201915b505050505081526020019060010190610c16565b505050508152602001601482015481525050838381518110610ce757610ce6615980565b5b6020026020010181905250508080610cfe906159de565b9150506105fd565b508091505090565b6006602052806000526040600020600091509050806002018054610d319061594e565b80601f0160208091040260200160405190810160405280929190818152602001828054610d5d9061594e565b8015610daa5780601f10610d7f57610100808354040283529160200191610daa565b820191906000526020600020905b815481529060010190602001808311610d8d57829003601f168201915b5050505050905081565b600047905090565b60015481565b600260205280600052604060002060009150905080600f0160009054906101000a900473ffffffffffffffffffffffffffffffffffffffff1690806010018054610e0b9061594e565b80601f0160208091040260200160405190810160405280929190818152602001828054610e379061594e565b8015610e845780601f10610e5957610100808354040283529160200191610e84565b820191906000526020600020905b815481529060010190602001808311610e6757829003601f168201915b50505050509080601301549080601401549080601501549080601601549080601901549080601a0154905088565b610eba613b97565b60026000838152602001908152602001600020604051806101c001604052908160008201600c80602002604051908101604052809291906000905b82821015610f98578382018054610f0b9061594e565b80601f0160208091040260200160405190810160405280929190818152602001828054610f379061594e565b8015610f845780601f10610f5957610100808354040283529160200191610f84565b820191906000526020600020905b815481529060010190602001808311610f6757829003601f168201915b505050505081526020019060010190610ef5565b505050508152602001600c8201600380602002604051908101604052809291908260038015610fdc576020028201915b815481526020019060010190808311610fc8575b50505050508152602001600f820160009054906101000a900473ffffffffffffffffffffffffffffffffffffffff1673ffffffffffffffffffffffffffffffffffffffff1673ffffffffffffffffffffffffffffffffffffffff16815260200160108201805461104b9061594e565b80601f01602080910402602001604051908101604052809291908181526020018280546110779061594e565b80156110c45780601f10611099576101008083540402835291602001916110c4565b820191906000526020600020905b8154815290600101906020018083116110a757829003601f168201915b5050505050815260200160118201805480602002602001604051908101604052809291908181526020016000905b8282101561119e5783829060005260206000200180546111119061594e565b80601f016020809104026020016040519081016040528092919081815260200182805461113d9061594e565b801561118a5780601f1061115f5761010080835404028352916020019161118a565b820191906000526020600020905b81548152906001019060200180831161116d57829003601f168201915b5050505050815260200190600101906110f2565b50505050815260200160128201805480602002602001604051908101604052809291908181526020016000905b828210156113f857838290600052602060002090600702016040518060800160405290816000820160048060200260405190810160405280929190826004801561122a576020028201915b815481526020019060010190808311611216575b505050505081526020016004820180546112439061594e565b80601f016020809104026020016040519081016040528092919081815260200182805461126f9061594e565b80156112bc5780601f10611291576101008083540402835291602001916112bc565b820191906000526020600020905b81548152906001019060200180831161129f57829003601f168201915b505050505081526020016005820180546112d59061594e565b80601f01602080910402602001604051908101604052809291908181526020018280546113019061594e565b801561134e5780601f106113235761010080835404028352916020019161134e565b820191906000526020600020905b81548152906001019060200180831161133157829003601f168201915b505050505081526020016006820180546113679061594e565b80601f01602080910402602001604051908101604052809291908181526020018280546113939061594e565b80156113e05780601f106113b5576101008083540402835291602001916113e0565b820191906000526020600020905b8154815290600101906020018083116113c357829003601f168201915b505050505081525050815260200190600101906111cb565b505050508152602001601382015481526020016014820154815260200160158201548152602001601682015481526020016017820180548060200260200160405190810160405280929190818152602001828054801561147757602002820191906000526020600020905b815481526020019060010190808311611463575b5050505050815260200160188201805480602002602001604051908101604052809291908181526020016000905b828210156115515783829060005260206000200180546114c49061594e565b80601f01602080910402602001604051908101604052809291908181526020018280546114f09061594e565b801561153d5780601f106115125761010080835404028352916020019161153d565b820191906000526020600020905b81548152906001019060200180831161152057829003601f168201915b5050505050815260200190600101906114a5565b50505050815260200160198201548152602001601a820154815250509050919050565b60008060086000600954815260200190815260200160002090508a6000600a81106115a2576115a1615980565b5b6020020151816000016000600a81106115be576115bd615980565b5b0190805190602001906115d2929190613c28565b508a6001600a81106115e7576115e6615980565b5b6020020151816000016001600a811061160357611602615980565b5b019080519060200190611617929190613c28565b508a6002600a811061162c5761162b615980565b5b6020020151816000016002600a811061164857611647615980565b5b01908051906020019061165c929190613c28565b508a6003600a811061167157611670615980565b5b6020020151816000016003600a811061168d5761168c615980565b5b0190805190602001906116a1929190613c28565b508a6004600a81106116b6576116b5615980565b5b6020020151816000016004600a81106116d2576116d1615980565b5b0190805190602001906116e6929190613c28565b508a6005600a81106116fb576116fa615980565b5b6020020151816000016005600a811061171757611716615980565b5b01908051906020019061172b929190613c28565b508a6006600a81106117405761173f615980565b5b6020020151816000016006600a811061175c5761175b615980565b5b019080519060200190611770929190613c28565b508a6007600a811061178557611784615980565b5b6020020151816000016007600a81106117a1576117a0615980565b5b0190805190602001906117b5929190613c28565b508a6008600a81106117ca576117c9615980565b5b6020020151816000016008600a81106117e6576117e5615980565b5b0190805190602001906117fa929190613c28565b508a6009600a811061180f5761180e615980565b5b6020020151816000016009600a811061182b5761182a615980565b5b01908051906020019061183f929190613c28565b5060095481600b01819055506000816014018190555060005b89518110156118cc5781600d018a828151811061187857611877615980565b5b60200260200101519080600181540180825580915050600190039060005260206000200160009091909190915090805190602001906118b8929190613c28565b5080806118c4906159de565b915050611858565b5060005b88518110156119e25781600e018982815181106118f0576118ef615980565b5b6020026020010151908060018154018082558091505060019003906000526020600020016000909190919091509080519060200190611930929190613c28565b508160100187828151811061194857611947615980565b5b6020026020010151908060018154018082558091505060019003906000526020600020016000909190919091505581600f0188828151811061198d5761198c615980565b5b60200260200101519080600181540180825580915050600190039060005260206000200160009091909190915090805190602001906119cd929190613c28565b506001816119db9190615a27565b90506118d0565b5060005b8551811015611b0b5781601101868281518110611a0657611a05615980565b5b6020026020010151908060018154018082558091505060019003906000526020600020016000909190919091509080519060200190611a46929190613c28565b5081601201858281518110611a5e57611a5d615980565b5b6020026020010151908060018154018082558091505060019003906000526020600020016000909190919091509080519060200190611a9e929190613c28565b5081601301848281518110611ab657611ab5615980565b5b6020026020010151908060018154018082558091505060019003906000526020600020016000909190919091509080519060200190611af6929190613c28565b50600181611b049190615a27565b90506119e6565b508981600c0160006101000a81548173ffffffffffffffffffffffffffffffffffffffff021916908373ffffffffffffffffffffffffffffffffffffffff16021790555060096000815480929190611b62906159de565b91905055506001600954611b769190615a7d565b9150509998505050505050505050565b60095481565b60006008600084815260200190815260200160002090508181600a0181905550505050565b6000602052806000526040600020600091509050806004018054611bd49061594e565b80601f0160208091040260200160405190810160405280929190818152602001828054611c009061594e565b8015611c4d5780601f10611c2257610100808354040283529160200191611c4d565b820191906000526020600020905b815481529060010190602001808311611c3057829003601f168201915b505050505090806005018054611c629061594e565b80601f0160208091040260200160405190810160405280929190818152602001828054611c8e9061594e565b8015611cdb5780601f10611cb057610100808354040283529160200191611cdb565b820191906000526020600020905b815481529060010190602001808311611cbe57829003601f168201915b505050505090806006018054611cf09061594e565b80601f0160208091040260200160405190810160405280929190818152602001828054611d1c9061594e565b8015611d695780601f10611d3e57610100808354040283529160200191611d69565b820191906000526020600020905b815481529060010190602001808311611d4c57829003601f168201915b5050505050905083565b6060600060035467ffffffffffffffff811115611d9357611d92614914565b5b604051908082528060200260200182016040528015611dcc57816020015b611db9613b97565b815260200190600190039081611db15790505b50905060005b6003548110156124c657600060026000838152602001908152602001600020905080604051806101c001604052908160008201600c80602002604051908101604052809291906000905b82821015611ebf578382018054611e329061594e565b80601f0160208091040260200160405190810160405280929190818152602001828054611e5e9061594e565b8015611eab5780601f10611e8057610100808354040283529160200191611eab565b820191906000526020600020905b815481529060010190602001808311611e8e57829003601f168201915b505050505081526020019060010190611e1c565b505050508152602001600c8201600380602002604051908101604052809291908260038015611f03576020028201915b815481526020019060010190808311611eef575b50505050508152602001600f820160009054906101000a900473ffffffffffffffffffffffffffffffffffffffff1673ffffffffffffffffffffffffffffffffffffffff1673ffffffffffffffffffffffffffffffffffffffff168152602001601082018054611f729061594e565b80601f0160208091040260200160405190810160405280929190818152602001828054611f9e9061594e565b8015611feb5780601f10611fc057610100808354040283529160200191611feb565b820191906000526020600020905b815481529060010190602001808311611fce57829003601f168201915b5050505050815260200160118201805480602002602001604051908101604052809291908181526020016000905b828210156120c55783829060005260206000200180546120389061594e565b80601f01602080910402602001604051908101604052809291908181526020018280546120649061594e565b80156120b15780601f10612086576101008083540402835291602001916120b1565b820191906000526020600020905b81548152906001019060200180831161209457829003601f168201915b505050505081526020019060010190612019565b50505050815260200160128201805480602002602001604051908101604052809291908181526020016000905b8282101561231f578382906000526020600020906007020160405180608001604052908160008201600480602002604051908101604052809291908260048015612151576020028201915b81548152602001906001019080831161213d575b5050505050815260200160048201805461216a9061594e565b80601f01602080910402602001604051908101604052809291908181526020018280546121969061594e565b80156121e35780601f106121b8576101008083540402835291602001916121e3565b820191906000526020600020905b8154815290600101906020018083116121c657829003601f168201915b505050505081526020016005820180546121fc9061594e565b80601f01602080910402602001604051908101604052809291908181526020018280546122289061594e565b80156122755780601f1061224a57610100808354040283529160200191612275565b820191906000526020600020905b81548152906001019060200180831161225857829003601f168201915b5050505050815260200160068201805461228e9061594e565b80601f01602080910402602001604051908101604052809291908181526020018280546122ba9061594e565b80156123075780601f106122dc57610100808354040283529160200191612307565b820191906000526020600020905b8154815290600101906020018083116122ea57829003601f168201915b505050505081525050815260200190600101906120f2565b505050508152602001601382015481526020016014820154815260200160158201548152602001601682015481526020016017820180548060200260200160405190810160405280929190818152602001828054801561239e57602002820191906000526020600020905b81548152602001906001019080831161238a575b5050505050815260200160188201805480602002602001604051908101604052809291908181526020016000905b828210156124785783829060005260206000200180546123eb9061594e565b80601f01602080910402602001604051908101604052809291908181526020018280546124179061594e565b80156124645780601f1061243957610100808354040283529160200191612464565b820191906000526020600020905b81548152906001019060200180831161244757829003601f168201915b5050505050815260200190600101906123cc565b50505050815260200160198201548152602001601a820154815250508383815181106124a7576124a6615980565b5b60200260200101819052505080806124be906159de565b915050611dd2565b508091505090565b60008060006001548152602001908152602001600020905086816000016000600481106124fe576124fd615980565b5b0181905550858160000160016004811061251b5761251a615980565b5b0181905550848160000160026004811061253857612537615980565b5b0181905550838160000160036004811061255557612554615980565b5b018190555082816004019080519060200190612572929190613c28565b508181600501908051906020019061258b929190613c28565b50878160060190805190602001906125a4929190613c28565b506000600260008b81526020019081526020016000209050806012018290806001815401808255809150506001900390600052602060002090600702016000909190919091506000820181600001906004612600929190613cae565b5060048201816004019080546126159061594e565b612620929190613ceb565b5060058201816005019080546126359061594e565b612640929190613ceb565b5060068201816006019080546126559061594e565b612660929190613ceb565b50505060016000815480929190612676906159de565b919050555050505050505050505050565b600860205280600052604060002060009150905080600a01549080600b01549080600c0160009054906101000a900473ffffffffffffffffffffffffffffffffffffffff16908060140154905084565b60035481565b60046020528060005260406000206000915090508060020154905081565b6000806002600086815260200190815260200160002090506000600860008681526020019081526020016000209050848260130181905550600082601601819055508382601401819055506001816014018190555085925050509392505050565b60055481565b60075481565b600060026000848152602001908152602001600020905080601801829080600181540180825580915050600190039060005260206000200160009091909190915090805190602001906127bc929190613c28565b50505050565b60006002600086815260200190815260200160002090506000600860008360130154815260200190815260200160002090506001851415612877578373ffffffffffffffffffffffffffffffffffffffff166108fc849081150290604051600060405180830381858888f19350505050158015612843573d6000803e3d6000fd5b50816019016000815480929190612859906159de565b919050555082826014015461286e9190615a7d565b82601401819055505b6004826019015414156128995760008160140181905550600182601a01819055505b81601701859080600181540180825580915050600190039060005260206000200160009091909190915055505050505050565b60008060026000600354815260200190815260200160002090504281600c016000600381106128fe576128fd615980565b5b015410612940576040517f08c379a000000000000000000000000000000000000000000000000000000000815260040161293790615b23565b60405180910390fd5b8560006003811061295457612953615980565b5b602002015181600c016000600381106129705761296f615980565b5b01819055508560016003811061298957612988615980565b5b602002015181600c016001600381106129a5576129a4615980565b5b0181905550856002600381106129be576129bd615980565b5b602002015181600c016002600381106129da576129d9615980565b5b0181905550866000600c81106129f3576129f2615980565b5b6020020151816000016000600c8110612a0f57612a0e615980565b5b019080519060200190612a23929190613c28565b50866001600c8110612a3857612a37615980565b5b6020020151816000016001600c8110612a5457612a53615980565b5b019080519060200190612a68929190613c28565b50866002600c8110612a7d57612a7c615980565b5b6020020151816000016002600c8110612a9957612a98615980565b5b019080519060200190612aad929190613c28565b50866003600c8110612ac257612ac1615980565b5b6020020151816000016003600c8110612ade57612add615980565b5b019080519060200190612af2929190613c28565b50866004600c8110612b0757612b06615980565b5b6020020151816000016004600c8110612b2357612b22615980565b5b019080519060200190612b37929190613c28565b50866005600c8110612b4c57612b4b615980565b5b6020020151816000016005600c8110612b6857612b67615980565b5b019080519060200190612b7c929190613c28565b50866006600c8110612b9157612b90615980565b5b6020020151816000016006600c8110612bad57612bac615980565b5b019080519060200190612bc1929190613c28565b50866007600c8110612bd657612bd5615980565b5b6020020151816000016007600c8110612bf257612bf1615980565b5b019080519060200190612c06929190613c28565b50866008600c8110612c1b57612c1a615980565b5b6020020151816000016008600c8110612c3757612c36615980565b5b019080519060200190612c4b929190613c28565b50866009600c8110612c6057612c5f615980565b5b6020020151816000016009600c8110612c7c57612c7b615980565b5b019080519060200190612c90929190613c28565b5086600a600c8110612ca557612ca4615980565b5b602002015181600001600a600c8110612cc157612cc0615980565b5b019080519060200190612cd5929190613c28565b5086600b600c8110612cea57612ce9615980565b5b602002015181600001600b600c8110612d0657612d05615980565b5b019080519060200190612d1a929190613c28565b5082816010019080519060200190612d33929190613c28565b50600081601901819055506000816014018190555060018160160181905550600081601a018190555060005b8451811015612dd35781601101858281518110612d7f57612d7e615980565b5b6020026020010151908060018154018082558091505060019003906000526020600020016000909190919091509080519060200190612dbf929190613c28565b508080612dcb906159de565b915050612d5f565b50600081601301819055508481600f0160006101000a81548173ffffffffffffffffffffffffffffffffffffffff021916908373ffffffffffffffffffffffffffffffffffffffff160217905550600354816015018190555060036000815480929190612e3f906159de565b91905055506001600354612e539190615a7d565b91505095945050505050565b600080600860008d815260200190815260200160002090508a6000600a8110612e8b57612e8a615980565b5b6020020151816000016000600a8110612ea757612ea6615980565b5b019080519060200190612ebb929190613c28565b508a6001600a8110612ed057612ecf615980565b5b6020020151816000016001600a8110612eec57612eeb615980565b5b019080519060200190612f00929190613c28565b508a6002600a8110612f1557612f14615980565b5b6020020151816000016002600a8110612f3157612f30615980565b5b019080519060200190612f45929190613c28565b508a6003600a8110612f5a57612f59615980565b5b6020020151816000016003600a8110612f7657612f75615980565b5b019080519060200190612f8a929190613c28565b508a6004600a8110612f9f57612f9e615980565b5b6020020151816000016004600a8110612fbb57612fba615980565b5b019080519060200190612fcf929190613c28565b508a6005600a8110612fe457612fe3615980565b5b6020020151816000016005600a811061300057612fff615980565b5b019080519060200190613014929190613c28565b508a6006600a811061302957613028615980565b5b6020020151816000016006600a811061304557613044615980565b5b019080519060200190613059929190613c28565b508a6007600a811061306e5761306d615980565b5b6020020151816000016007600a811061308a57613089615980565b5b01908051906020019061309e929190613c28565b508a6008600a81106130b3576130b2615980565b5b6020020151816000016008600a81106130cf576130ce615980565b5b0190805190602001906130e3929190613c28565b508a6009600a81106130f8576130f7615980565b5b6020020151816000016009600a811061311457613113615980565b5b019080519060200190613128929190613c28565b5060005b89518110156131a05781600d018a828151811061314c5761314b615980565b5b602002602001015190806001815401808255809150506001900390600052602060002001600090919091909150908051906020019061318c929190613c28565b508080613198906159de565b91505061312c565b5060005b88518110156132b65781600e018982815181106131c4576131c3615980565b5b6020026020010151908060018154018082558091505060019003906000526020600020016000909190919091509080519060200190613204929190613c28565b508160100187828151811061321c5761321b615980565b5b6020026020010151908060018154018082558091505060019003906000526020600020016000909190919091505581600f0188828151811061326157613260615980565b5b60200260200101519080600181540180825580915050600190039060005260206000200160009091909190915090805190602001906132a1929190613c28565b506001816132af9190615a27565b90506131a4565b5060005b85518110156133df57816011018682815181106132da576132d9615980565b5b602002602001015190806001815401808255809150506001900390600052602060002001600090919091909150908051906020019061331a929190613c28565b508160120185828151811061333257613331615980565b5b6020026020010151908060018154018082558091505060019003906000526020600020016000909190919091509080519060200190613372929190613c28565b508160130184828151811061338a57613389615980565b5b60200260200101519080600181540180825580915050600190039060005260206000200160009091909190915090805190602001906133ca929190613c28565b506001816133d89190615a27565b90506132ba565b508981600c0160006101000a81548173ffffffffffffffffffffffffffffffffffffffff021916908373ffffffffffffffffffffffffffffffffffffffff16021790555060016009546134329190615a7d565b9150509a9950505050505050505050565b61344b613b1a565b600860008381526020019081526020016000206040518061018001604052908160008201600a80602002604051908101604052809291906000905b8282101561352957838201805461349c9061594e565b80601f01602080910402602001604051908101604052809291908181526020018280546134c89061594e565b80156135155780601f106134ea57610100808354040283529160200191613515565b820191906000526020600020905b8154815290600101906020018083116134f857829003601f168201915b505050505081526020019060010190613486565b505050508152602001600a8201548152602001600b8201548152602001600c820160009054906101000a900473ffffffffffffffffffffffffffffffffffffffff1673ffffffffffffffffffffffffffffffffffffffff1673ffffffffffffffffffffffffffffffffffffffff168152602001600d8201805480602002602001604051908101604052809291908181526020016000905b8282101561366c5783829060005260206000200180546135df9061594e565b80601f016020809104026020016040519081016040528092919081815260200182805461360b9061594e565b80156136585780601f1061362d57610100808354040283529160200191613658565b820191906000526020600020905b81548152906001019060200180831161363b57829003601f168201915b5050505050815260200190600101906135c0565b505050508152602001600e8201805480602002602001604051908101604052809291908181526020016000905b828210156137455783829060005260206000200180546136b89061594e565b80601f01602080910402602001604051908101604052809291908181526020018280546136e49061594e565b80156137315780601f1061370657610100808354040283529160200191613731565b820191906000526020600020905b81548152906001019060200180831161371457829003601f168201915b505050505081526020019060010190613699565b505050508152602001600f8201805480602002602001604051908101604052809291908181526020016000905b8282101561381e5783829060005260206000200180546137919061594e565b80601f01602080910402602001604051908101604052809291908181526020018280546137bd9061594e565b801561380a5780601f106137df5761010080835404028352916020019161380a565b820191906000526020600020905b8154815290600101906020018083116137ed57829003601f168201915b505050505081526020019060010190613772565b5050505081526020016010820180548060200260200160405190810160405280929190818152602001828054801561387557602002820191906000526020600020905b815481526020019060010190808311613861575b5050505050815260200160118201805480602002602001604051908101604052809291908181526020016000905b8282101561394f5783829060005260206000200180546138c29061594e565b80601f01602080910402602001604051908101604052809291908181526020018280546138ee9061594e565b801561393b5780601f106139105761010080835404028352916020019161393b565b820191906000526020600020905b81548152906001019060200180831161391e57829003601f168201915b5050505050815260200190600101906138a3565b50505050815260200160128201805480602002602001604051908101604052809291908181526020016000905b82821015613a2857838290600052602060002001805461399b9061594e565b80601f01602080910402602001604051908101604052809291908181526020018280546139c79061594e565b8015613a145780601f106139e957610100808354040283529160200191613a14565b820191906000526020600020905b8154815290600101906020018083116139f757829003601f168201915b50505050508152602001906001019061397c565b50505050815260200160138201805480602002602001604051908101604052809291908181526020016000905b82821015613b01578382906000526020600020018054613a749061594e565b80601f0160208091040260200160405190810160405280929190818152602001828054613aa09061594e565b8015613aed5780601f10613ac257610100808354040283529160200191613aed565b820191906000526020600020905b815481529060010190602001808311613ad057829003601f168201915b505050505081526020019060010190613a55565b5050505081526020016014820154815250509050919050565b604051806101800160405280613b2e613d78565b81526020016000815260200160008152602001600073ffffffffffffffffffffffffffffffffffffffff16815260200160608152602001606081526020016060815260200160608152602001606081526020016060815260200160608152602001600081525090565b604051806101c00160405280613bab613da0565b8152602001613bb8613dc8565b8152602001600073ffffffffffffffffffffffffffffffffffffffff16815260200160608152602001606081526020016060815260200160008152602001600081526020016000815260200160008152602001606081526020016060815260200160008152602001600081525090565b828054613c349061594e565b90600052602060002090601f016020900481019282613c565760008555613c9d565b82601f10613c6f57805160ff1916838001178555613c9d565b82800160010185558215613c9d579182015b82811115613c9c578251825591602001919060010190613c81565b5b509050613caa9190613dea565b5090565b8260048101928215613cda579182015b82811115613cd9578254825591600101919060010190613cbe565b5b509050613ce79190613dea565b5090565b828054613cf79061594e565b90600052602060002090601f016020900481019282613d195760008555613d67565b82601f10613d2a5780548555613d67565b82800160010185558215613d6757600052602060002091601f016020900482015b82811115613d66578254825591600101919060010190613d4b565b5b509050613d749190613dea565b5090565b604051806101400160405280600a905b6060815260200190600190039081613d885790505090565b604051806101800160405280600c905b6060815260200190600190039081613db05790505090565b6040518060600160405280600390602082028036833780820191505090505090565b5b80821115613e03576000816000905550600101613deb565b5090565b600081519050919050565b600082825260208201905092915050565b6000819050602082019050919050565b6000600a9050919050565b600081905092915050565b6000819050919050565b600081519050919050565b600082825260208201905092915050565b60005b83811015613e8d578082015181840152602081019050613e72565b83811115613e9c576000848401525b50505050565b6000601f19601f8301169050919050565b6000613ebe82613e53565b613ec88185613e5e565b9350613ed8818560208601613e6f565b613ee181613ea2565b840191505092915050565b6000613ef88383613eb3565b905092915050565b6000602082019050919050565b6000613f1882613e33565b613f228185613e3e565b935083602082028501613f3485613e49565b8060005b85811015613f705784840389528151613f518582613eec565b9450613f5c83613f00565b925060208a01995050600181019050613f38565b50829750879550505050505092915050565b6000819050919050565b613f9581613f82565b82525050565b600073ffffffffffffffffffffffffffffffffffffffff82169050919050565b6000613fc682613f9b565b9050919050565b613fd681613fbb565b82525050565b600081519050919050565b600082825260208201905092915050565b6000819050602082019050919050565b6000602082019050919050565b600061402082613fdc565b61402a8185613fe7565b93508360208202850161403c85613ff8565b8060005b8581101561407857848403895281516140598582613eec565b945061406483614008565b925060208a01995050600181019050614040565b50829750879550505050505092915050565b600081519050919050565b600082825260208201905092915050565b6000819050602082019050919050565b60006140c28383613f8c565b60208301905092915050565b6000602082019050919050565b60006140e68261408a565b6140f08185614095565b93506140fb836140a6565b8060005b8381101561412c57815161411388826140b6565b975061411e836140ce565b9250506001810190506140ff565b5085935050505092915050565b60006101808301600083015184820360008601526141578282613f0d565b915050602083015161416c6020860182613f8c565b50604083015161417f6040860182613f8c565b5060608301516141926060860182613fcd565b50608083015184820360808601526141aa8282614015565b91505060a083015184820360a08601526141c48282614015565b91505060c083015184820360c08601526141de8282614015565b91505060e083015184820360e08601526141f882826140db565b9150506101008301518482036101008601526142148282614015565b9150506101208301518482036101208601526142308282614015565b91505061014083015184820361014086015261424c8282614015565b915050610160830151614263610160860182613f8c565b508091505092915050565b600061427a8383614139565b905092915050565b6000602082019050919050565b600061429a82613e07565b6142a48185613e12565b9350836020820285016142b685613e23565b8060005b858110156142f257848403895281516142d3858261426e565b94506142de83614282565b925060208a019950506001810190506142ba565b50829750879550505050505092915050565b6000602082019050818103600083015261431e818461428f565b905092915050565b6000604051905090565b600080fd5b600080fd5b61434381613f82565b811461434e57600080fd5b50565b6000813590506143608161433a565b92915050565b60006020828403121561437c5761437b614330565b5b600061438a84828501614351565b91505092915050565b600082825260208201905092915050565b60006143af82613e53565b6143b98185614393565b93506143c9818560208601613e6f565b6143d281613ea2565b840191505092915050565b600060208201905081810360008301526143f781846143a4565b905092915050565b61440881613f82565b82525050565b600060208201905061442360008301846143ff565b92915050565b61443281613fbb565b82525050565b60006101008201905061444e600083018b614429565b8181036020830152614460818a6143a4565b905061446f60408301896143ff565b61447c60608301886143ff565b61448960808301876143ff565b61449660a08301866143ff565b6144a360c08301856143ff565b6144b060e08301846143ff565b9998505050505050505050565b6000600c9050919050565b600081905092915050565b6000819050919050565b6000602082019050919050565b60006144f5826144bd565b6144ff81856144c8565b935083602082028501614511856144d3565b8060005b8581101561454d578484038952815161452e8582613eec565b9450614539836144dd565b925060208a01995050600181019050614515565b50829750879550505050505092915050565b600060039050919050565b600081905092915050565b6000819050919050565b6000602082019050919050565b6145958161455f565b61459f818461456a565b92506145aa82614575565b8060005b838110156145db5781516145c287826140b6565b96506145cd8361457f565b9250506001810190506145ae565b505050505050565b600081519050919050565b600082825260208201905092915050565b6000819050602082019050919050565b600060049050919050565b600081905092915050565b6000819050919050565b6000602082019050919050565b6146458161460f565b61464f818461461a565b925061465a82614625565b8060005b8381101561468b57815161467287826140b6565b965061467d8361462f565b92505060018101905061465e565b505050505050565b600060e0830160008301516146ab600086018261463c565b50602083015184820360808601526146c38282613eb3565b915050604083015184820360a08601526146dd8282613eb3565b915050606083015184820360c08601526146f78282613eb3565b9150508091505092915050565b60006147108383614693565b905092915050565b6000602082019050919050565b6000614730826145e3565b61473a81856145ee565b93508360208202850161474c856145ff565b8060005b8581101561478857848403895281516147698582614704565b945061477483614718565b925060208a01995050600181019050614750565b50829750879550505050505092915050565b60006102008301600083015184820360008601526147b882826144ea565b91505060208301516147cd602086018261458c565b5060408301516147e06080860182613fcd565b50606083015184820360a08601526147f88282613eb3565b915050608083015184820360c08601526148128282614015565b91505060a083015184820360e086015261482c8282614725565b91505060c0830151614842610100860182613f8c565b5060e0830151614856610120860182613f8c565b5061010083015161486b610140860182613f8c565b50610120830151614880610160860182613f8c565b5061014083015184820361018086015261489a82826140db565b9150506101608301518482036101a08601526148b68282614015565b9150506101808301516148cd6101c0860182613f8c565b506101a08301516148e26101e0860182613f8c565b508091505092915050565b60006020820190508181036000830152614907818461479a565b905092915050565b600080fd5b7f4e487b7100000000000000000000000000000000000000000000000000000000600052604160045260246000fd5b61494c82613ea2565b810181811067ffffffffffffffff8211171561496b5761496a614914565b5b80604052505050565b600061497e614326565b905061498a8282614943565b919050565b600067ffffffffffffffff8211156149aa576149a9614914565b5b602082029050919050565b600080fd5b600080fd5b600067ffffffffffffffff8211156149da576149d9614914565b5b6149e382613ea2565b9050602081019050919050565b82818337600083830152505050565b6000614a12614a0d846149bf565b614974565b905082815260208101848484011115614a2e57614a2d6149ba565b5b614a398482856149f0565b509392505050565b600082601f830112614a5657614a5561490f565b5b8135614a668482602086016149ff565b91505092915050565b6000614a82614a7d8461498f565b614974565b90508060208402830185811115614a9c57614a9b6149b5565b5b835b81811015614ae357803567ffffffffffffffff811115614ac157614ac061490f565b5b808601614ace8982614a41565b85526020850194505050602081019050614a9e565b5050509392505050565b600082601f830112614b0257614b0161490f565b5b600a614b0f848285614a6f565b91505092915050565b614b2181613fbb565b8114614b2c57600080fd5b50565b600081359050614b3e81614b18565b92915050565b600067ffffffffffffffff821115614b5f57614b5e614914565b5b602082029050602081019050919050565b6000614b83614b7e84614b44565b614974565b90508083825260208201905060208402830185811115614ba657614ba56149b5565b5b835b81811015614bed57803567ffffffffffffffff811115614bcb57614bca61490f565b5b808601614bd88982614a41565b85526020850194505050602081019050614ba8565b5050509392505050565b600082601f830112614c0c57614c0b61490f565b5b8135614c1c848260208601614b70565b91505092915050565b600067ffffffffffffffff821115614c4057614c3f614914565b5b602082029050602081019050919050565b6000614c64614c5f84614c25565b614974565b90508083825260208201905060208402830185811115614c8757614c866149b5565b5b835b81811015614cb05780614c9c8882614351565b845260208401935050602081019050614c89565b5050509392505050565b600082601f830112614ccf57614cce61490f565b5b8135614cdf848260208601614c51565b91505092915050565b60008060008060008060008060006101208a8c031215614d0b57614d0a614330565b5b60008a013567ffffffffffffffff811115614d2957614d28614335565b5b614d358c828d01614aed565b9950506020614d468c828d01614b2f565b98505060408a013567ffffffffffffffff811115614d6757614d66614335565b5b614d738c828d01614bf7565b97505060608a013567ffffffffffffffff811115614d9457614d93614335565b5b614da08c828d01614bf7565b96505060808a013567ffffffffffffffff811115614dc157614dc0614335565b5b614dcd8c828d01614bf7565b95505060a08a013567ffffffffffffffff811115614dee57614ded614335565b5b614dfa8c828d01614cba565b94505060c08a013567ffffffffffffffff811115614e1b57614e1a614335565b5b614e278c828d01614bf7565b93505060e08a013567ffffffffffffffff811115614e4857614e47614335565b5b614e548c828d01614bf7565b9250506101008a013567ffffffffffffffff811115614e7657614e75614335565b5b614e828c828d01614bf7565b9150509295985092959850929598565b60008060408385031215614ea957614ea8614330565b5b6000614eb785828601614351565b9250506020614ec885828601614351565b9150509250929050565b60006060820190508181036000830152614eec81866143a4565b90508181036020830152614f0081856143a4565b90508181036040830152614f1481846143a4565b9050949350505050565b600081519050919050565b600082825260208201905092915050565b6000819050602082019050919050565b6000610200830160008301518482036000860152614f6882826144ea565b9150506020830151614f7d602086018261458c565b506040830151614f906080860182613fcd565b50606083015184820360a0860152614fa88282613eb3565b915050608083015184820360c0860152614fc28282614015565b91505060a083015184820360e0860152614fdc8282614725565b91505060c0830151614ff2610100860182613f8c565b5060e0830151615006610120860182613f8c565b5061010083015161501b610140860182613f8c565b50610120830151615030610160860182613f8c565b5061014083015184820361018086015261504a82826140db565b9150506101608301518482036101a08601526150668282614015565b91505061018083015161507d6101c0860182613f8c565b506101a08301516150926101e0860182613f8c565b508091505092915050565b60006150a98383614f4a565b905092915050565b6000602082019050919050565b60006150c982614f1e565b6150d38185614f29565b9350836020820285016150e585614f3a565b8060005b858110156151215784840389528151615102858261509d565b945061510d836150b1565b925060208a019950506001810190506150e9565b50829750879550505050505092915050565b6000602082019050818103600083015261514d81846150be565b905092915050565b600080600080600080600080610100898b03121561517657615175614330565b5b60006151848b828c01614351565b985050602089013567ffffffffffffffff8111156151a5576151a4614335565b5b6151b18b828c01614a41565b97505060406151c28b828c01614351565b96505060606151d38b828c01614351565b95505060806151e48b828c01614351565b94505060a06151f58b828c01614351565b93505060c089013567ffffffffffffffff81111561521657615215614335565b5b6152228b828c01614a41565b92505060e089013567ffffffffffffffff81111561524357615242614335565b5b61524f8b828c01614a41565b9150509295985092959890939650565b600060808201905061527460008301876143ff565b61528160208301866143ff565b61528e6040830185614429565b61529b60608301846143ff565b95945050505050565b6000806000606084860312156152bd576152bc614330565b5b60006152cb86828701614351565b93505060206152dc86828701614351565b92505060406152ed86828701614351565b9150509250925092565b6000806040838503121561530e5761530d614330565b5b600061531c85828601614351565b925050602083013567ffffffffffffffff81111561533d5761533c614335565b5b61534985828601614a41565b9150509250929050565b6000806000806080858703121561536d5761536c614330565b5b600061537b87828801614351565b945050602061538c87828801614351565b935050604061539d87828801614b2f565b92505060606153ae87828801614351565b91505092959194509250565b600067ffffffffffffffff8211156153d5576153d4614914565b5b602082029050919050565b60006153f36153ee846153ba565b614974565b9050806020840283018581111561540d5761540c6149b5565b5b835b8181101561545457803567ffffffffffffffff8111156154325761543161490f565b5b80860161543f8982614a41565b8552602085019450505060208101905061540f565b5050509392505050565b600082601f8301126154735761547261490f565b5b600c6154808482856153e0565b91505092915050565b600067ffffffffffffffff8211156154a4576154a3614914565b5b602082029050919050565b60006154c26154bd84615489565b614974565b905080602084028301858111156154dc576154db6149b5565b5b835b8181101561550557806154f18882614351565b8452602084019350506020810190506154de565b5050509392505050565b600082601f8301126155245761552361490f565b5b60036155318482856154af565b91505092915050565b600080600080600060e0868803121561555657615555614330565b5b600086013567ffffffffffffffff81111561557457615573614335565b5b6155808882890161545e565b95505060206155918882890161550f565b94505060806155a288828901614b2f565b93505060a086013567ffffffffffffffff8111156155c3576155c2614335565b5b6155cf88828901614bf7565b92505060c086013567ffffffffffffffff8111156155f0576155ef614335565b5b6155fc88828901614a41565b9150509295509295909350565b6000806000806000806000806000806101408b8d03121561562d5761562c614330565b5b600061563b8d828e01614351565b9a505060208b013567ffffffffffffffff81111561565c5761565b614335565b5b6156688d828e01614aed565b99505060406156798d828e01614b2f565b98505060608b013567ffffffffffffffff81111561569a57615699614335565b5b6156a68d828e01614bf7565b97505060808b013567ffffffffffffffff8111156156c7576156c6614335565b5b6156d38d828e01614bf7565b96505060a08b013567ffffffffffffffff8111156156f4576156f3614335565b5b6157008d828e01614bf7565b95505060c08b013567ffffffffffffffff81111561572157615720614335565b5b61572d8d828e01614cba565b94505060e08b013567ffffffffffffffff81111561574e5761574d614335565b5b61575a8d828e01614bf7565b9350506101008b013567ffffffffffffffff81111561577c5761577b614335565b5b6157888d828e01614bf7565b9250506101208b013567ffffffffffffffff8111156157aa576157a9614335565b5b6157b68d828e01614bf7565b9150509295989b9194979a5092959850565b60006101808301600083015184820360008601526157e68282613f0d565b91505060208301516157fb6020860182613f8c565b50604083015161580e6040860182613f8c565b5060608301516158216060860182613fcd565b50608083015184820360808601526158398282614015565b91505060a083015184820360a08601526158538282614015565b91505060c083015184820360c086015261586d8282614015565b91505060e083015184820360e086015261588782826140db565b9150506101008301518482036101008601526158a38282614015565b9150506101208301518482036101208601526158bf8282614015565b9150506101408301518482036101408601526158db8282614015565b9150506101608301516158f2610160860182613f8c565b508091505092915050565b6000602082019050818103600083015261591781846157c8565b905092915050565b7f4e487b7100000000000000000000000000000000000000000000000000000000600052602260045260246000fd5b6000600282049050600182168061596657607f821691505b6020821081141561597a5761597961591f565b5b50919050565b7f4e487b7100000000000000000000000000000000000000000000000000000000600052603260045260246000fd5b7f4e487b7100000000000000000000000000000000000000000000000000000000600052601160045260246000fd5b60006159e982613f82565b91507fffffffffffffffffffffffffffffffffffffffffffffffffffffffffffffffff821415615a1c57615a1b6159af565b5b600182019050919050565b6000615a3282613f82565b9150615a3d83613f82565b9250827fffffffffffffffffffffffffffffffffffffffffffffffffffffffffffffffff03821115615a7257615a716159af565b5b828201905092915050565b6000615a8882613f82565b9150615a9383613f82565b925082821015615aa657615aa56159af565b5b828203905092915050565b7f54686520646561646c696e652073686f756c642062652061206461746520696e60008201527f20746865206675747572652e0000000000000000000000000000000000000000602082015250565b6000615b0d602c83614393565b9150615b1882615ab1565b604082019050919050565b60006020820190508181036000830152615b3c81615b00565b905091905056fea26469706673582212202b40eb0645a9296d962612002e19b69a2d1c30e52351003cfac54439b543764c64736f6c634300080a0033",
  "linkReferences": {},
  "deployedLinkReferences": {}
}